:1000000012C01FC01EC01DC0B4C01BC01AC0BDC0DE
:1000100018C017C016C015C014C0FDC013C111C050
:1000200010C00FC00EC011241FBECFEDCDBF10E019
:10003000A0E6B0E001C01D92AF3CB107E1F726D2C7
:10004000BCC2DECF803128F4E82FF0E0E458FF4F47
:1000500008C0982F9051903130F4E82FF0E0EF5A1B
:10006000FF4F208111C0982F9052903128F4E82F33
:10007000F0E0EC58FF4FF5CF982F905397FD06C056
:1000800090E0C09784D2282F30E015C0803B91F4D7
:1000900082B322B330E02071307054E0359527955B
:1000A0005A95E1F790E08072907095958795282B8E
:1000B000392B01C00895C901089508958CE186BFC8
:1000C0008CE08CBF12B887E689B982E08BB988E9E9
:1000D0008AB986E083B908950F931F93182F062FCE
:1000E000803128F4E82FF0E0E458FF4F6083812F3F
:1000F0008051803128F4E12FF0E0EF5AFF4F008368
:10010000812F8052803128F4E12FF0E0EC58FF4F2E
:100110000083812F805387FD06C0212F30E0C90165
:10012000C097602F3CD2103B51F400FD949A01FD22
:10013000949802FD959A03FF11C095980FC0113B4A
:1001400019F4802FBBDF08C0123B41F481E090E03E
:10015000602F25D20093790081E004C081E0133B39
:1001600008F080E01F910F9108955D9BFECF8CB940
:1001700008951F920F920FB60F92112496981EBCED
:100180000F900FBE0F901F9018951F920F920FB6F1
:100190000F9211242F933F934F935F938F939F93CD
:1001A000EF93FF935091CE0057FD28C0409160001F
:1001B0008CB1E42FF0E0E455FF4F80832BB1852F05
:1001C00090E08072907030E02C713070822B932B15
:1001D000009719F050615093CE00403228F0809182
:1001E000CE0080618093CE008091CE0084FD03C05C
:1001F0004F5F4093600012BE85E083BFFF91EF9197
:100200009F918F915F914F913F912F910F900FBED2
:100210000F901F9018951F920F920FB60F921124F6
:100220008F938091CE0084FD04C080688093CE00BF
:1002300002C01092CE0013BE8F910F900FBE0F9090
:100240001F9018951F920F920FB60F9211248F9343
:100250008091CE0080628093CE008F910F900FBE70
:100260000F901F9018958091600090E00297E0E059
:100270002FEF3FEF61E070EA15C044555F4FDA01A0
:100280004C9150E024273527F8E0A9015695479571
:1002900020FF04C09A012627372701C09A01F15098
:1002A000A1F7EF5F4E2F50E04817590734F3C9010B
:1002B00008951F931091AC0080917900181721F5D3
:1002C000D2DF2091600030E024553F4FF901329792
:1002D000908321503040F9018083929A89EF90E019
:1002E0000197F1F700C00000812F3FDF11E007C048
:1002F000E12FF0E0E455FF4F808137DF1F5F8091F1
:1003000060001817A8F392981F910895FF920F9319
:100310001F932091B20030E08091600090E0099737
:100320002817390749F08091AD0080688093AD00AF
:1003300081E08093AE0020C01092AE001091AF001B
:1003400008E00EC0F090AE00E02FF0E0E455FF4F63
:10035000812F6081C1DE8F0D8093AE000E5F1F5F25
:10036000412F50E08091B1002091AF0030E0280F84
:10037000311D4217530734F385E08093600099DF05
:100380001F910F91FF900895FF920F931F93CF93AA
:10039000DF930091AF008091B1008C3108F08BE1C8
:1003A00013E0C02FD0E0C80FD11D0FC0802F4ADE50
:1003B000A12FB0E0A455BF4F9C931F5FE12FF0E049
:1003C000E455FF4F80831F2D0F5F202F30E0B2E0F8
:1003D000FB2EF10E2C173D074CF313501093AE007B
:1003E000F092600066DFDF91CF911F910F91FF9037
:1003F000089580917A0090917B009093AE00809355
:10040000AF0086E08093600054DF08958CE0809315
:10041000AE0082E38093AF0083E38093B0008FEF60
:100420008093B10082E58093B20085E68093B300AB
:100430009CE69093B4008093B50089E78093B60062
:1004400080E28093B70081E38093B8008EE28093CE
:10045000B90080E38093BA0080E18093600029DFD7
:10046000089501DF2091600030E0F901E655FF4F6B
:1004700041E05081591340E025553F4F91E0F9018B
:100480002081281390E0842F89230895EF92FF9212
:100490000F931F9380E090E07AD010DE81E090E02F
:1004A00076D08093790084E781BB1FBC88E08BBD48
:1004B0001ABC82E080BF13BE85E489BF8FEF87BB83
:1004C0001092CE001092600010927B0010927A0081
:1004D00078940DE0E02E18E0F12E01E015E0809117
:1004E000CE0087FF4DC08091AC00882329F0909109
:1004F0007900981709F040C0B4DF8823E9F1969A93
:10050000EEBC80917A0090917B009C012F5F3F4F61
:1005100030937B0020937A002091AD00263091F03B
:10052000273038F4233061F0243051F02130C1F409
:1005300023C0203189F0213189F02B3089F40AC0A1
:1005400023DF1AC08091AF006091B100C5DDF09249
:10055000600011C04EDF10C0D9DE0EC057DF0CC0E6
:1005600020682093AD000093AE001093600090933C
:100570007B0080937A009DDE1092CE001092600086
:1005800087EA91E60197F1F700C00000A8CFE19952
:10059000FECF1FBA8EBBE09A99278DB30895262F00
:1005A000E199FECF1CBA1FBA8EBB2DBB0FB6F894D3
:0E05B000E29AE19A0FBE01960895F894FFCFEB
:00000001FF
